{
  "_format": "hh-sol-artifact-1",
  "contractName": "Rawdawg",
  "sourceName": "contracts/RawDawg.sol",
  "abi": [
    {
      "anonymous": false,
      "inputs": [
        {
          "indexed": true,
          "internalType": "address",
          "name": "previousOwner",
          "type": "address"
        },
        {
          "indexed": true,
          "internalType": "address",
          "name": "newOwner",
          "type": "address"
        }
      ],
      "name": "OwnershipTransferred",
      "type": "event"
    },
    {
      "stateMutability": "payable",
      "type": "fallback"
    },
    {
      "inputs": [
        {
          "internalType": "address",
          "name": "_pair",
          "type": "address"
        },
        {
          "internalType": "address",
          "name": "_token_in",
          "type": "address"
        },
        {
          "internalType": "address",
          "name": "_token_out",
          "type": "address"
        },
        {
          "internalType": "bool",
          "name": "_isToken0",
          "type": "bool"
        },
        {
          "internalType": "uint256",
          "name": "_amountIn",
          "type": "uint256"
        },
        {
          "internalType": "uint256",
          "name": "_amountOut",
          "type": "uint256"
        }
      ],
      "name": "_simulateV2AndRevertSwap",
      "outputs": [],
      "stateMutability": "nonpayable",
      "type": "function"
    },
    {
      "inputs": [
        {
          "internalType": "address",
          "name": "_pair",
          "type": "address"
        },
        {
          "internalType": "address",
          "name": "_token_in",
          "type": "address"
        },
        {
          "internalType": "bool",
          "name": "_isToken0",
          "type": "bool"
        },
        {
          "internalType": "uint256",
          "name": "_amountIn",
          "type": "uint256"
        },
        {
          "internalType": "uint256",
          "name": "_amountOut",
          "type": "uint256"
        }
      ],
      "name": "executeSwap",
      "outputs": [],
      "stateMutability": "nonpayable",
      "type": "function"
    },
    {
      "inputs": [
        {
          "internalType": "bytes",
          "name": "commands",
          "type": "bytes"
        },
        {
          "internalType": "bytes[]",
          "name": "inputs",
          "type": "bytes[]"
        },
        {
          "internalType": "uint256",
          "name": "deadline",
          "type": "uint256"
        }
      ],
      "name": "executeUniversalRouter",
      "outputs": [],
      "stateMutability": "payable",
      "type": "function"
    },
    {
      "inputs": [],
      "name": "owner",
      "outputs": [
        {
          "internalType": "address",
          "name": "",
          "type": "address"
        }
      ],
      "stateMutability": "view",
      "type": "function"
    },
    {
      "inputs": [],
      "name": "quoterV2Address",
      "outputs": [
        {
          "internalType": "address",
          "name": "",
          "type": "address"
        }
      ],
      "stateMutability": "view",
      "type": "function"
    },
    {
      "inputs": [],
      "name": "renounceOwnership",
      "outputs": [],
      "stateMutability": "nonpayable",
      "type": "function"
    },
    {
      "inputs": [],
      "name": "routerV2Address",
      "outputs": [
        {
          "internalType": "address",
          "name": "",
          "type": "address"
        }
      ],
      "stateMutability": "view",
      "type": "function"
    },
    {
      "inputs": [
        {
          "internalType": "address",
          "name": "_pair",
          "type": "address"
        },
        {
          "internalType": "address",
          "name": "_token_in",
          "type": "address"
        },
        {
          "internalType": "address",
          "name": "_token_out",
          "type": "address"
        },
        {
          "internalType": "bool",
          "name": "_isToken0",
          "type": "bool"
        },
        {
          "internalType": "uint256",
          "name": "_amountIn",
          "type": "uint256"
        },
        {
          "internalType": "uint256",
          "name": "_amountOut",
          "type": "uint256"
        }
      ],
      "name": "simulateV2AndRevertSwap",
      "outputs": [
        {
          "internalType": "uint256",
          "name": "buyAmountOut",
          "type": "uint256"
        },
        {
          "internalType": "uint256",
          "name": "buyAmountOutExpected",
          "type": "uint256"
        }
      ],
      "stateMutability": "nonpayable",
      "type": "function"
    },
    {
      "inputs": [
        {
          "internalType": "address",
          "name": "_pair",
          "type": "address"
        },
        {
          "internalType": "address",
          "name": "_token_in",
          "type": "address"
        },
        {
          "internalType": "address",
          "name": "_token_out",
          "type": "address"
        },
        {
          "internalType": "bool",
          "name": "_isToken0",
          "type": "bool"
        },
        {
          "internalType": "uint256",
          "name": "_amountIn",
          "type": "uint256"
        },
        {
          "internalType": "uint256",
          "name": "_amountOut",
          "type": "uint256"
        }
      ],
      "name": "simulateV2BuySellAndRevertSwap",
      "outputs": [
        {
          "internalType": "uint256",
          "name": "buyAmountOut",
          "type": "uint256"
        },
        {
          "internalType": "uint256",
          "name": "buyAmountOutExpected",
          "type": "uint256"
        },
        {
          "internalType": "uint256",
          "name": "sellAmountOut",
          "type": "uint256"
        },
        {
          "internalType": "uint256",
          "name": "sellAmountOutExpected",
          "type": "uint256"
        }
      ],
      "stateMutability": "nonpayable",
      "type": "function"
    },
    {
      "inputs": [
        {
          "internalType": "address",
          "name": "newOwner",
          "type": "address"
        }
      ],
      "name": "transferOwnership",
      "outputs": [],
      "stateMutability": "nonpayable",
      "type": "function"
    },
    {
      "inputs": [],
      "name": "universalRouterAddress",
      "outputs": [
        {
          "internalType": "address",
          "name": "",
          "type": "address"
        }
      ],
      "stateMutability": "view",
      "type": "function"
    },
    {
      "stateMutability": "payable",
      "type": "receive"
    }
  ],
  "bytecode": "0x608060405234801561001057600080fd5b5061002d61002261003260201b60201c565b61003a60201b60201c565b6100fe565b600033905090565b60008060009054906101000a900473ffffffffffffffffffffffffffffffffffffffff169050816000806101000a81548173ffffffffffffffffffffffffffffffffffffffff021916908373ffffffffffffffffffffffffffffffffffffffff1602179055508173ffffffffffffffffffffffffffffffffffffffff168173ffffffffffffffffffffffffffffffffffffffff167f8be0079c531659141344cd1fd0a4f28419497f9722a3daafe3b4186f6b6457e060405160405180910390a35050565b6122b2806200010e6000396000f3fe6080604052600436106100a05760003560e01c8063730a482d11610064578063730a482d1461017d5780638da5cb5b14610199578063b8f5a75b146101c4578063d0512b7c146101ef578063f2fde38b14610218578063febcb6e314610241576100a7565b80632704c03f146100a9578063591804ee146100d45780636a392d35146101125780636fa64eb21461013d578063715018a614610166576100a7565b366100a757005b005b3480156100b557600080fd5b506100be610281565b6040516100cb9190611466565b60405180910390f35b3480156100e057600080fd5b506100fb60048036038101906100f6919061152f565b610299565b6040516101099291906115cb565b60405180910390f35b34801561011e57600080fd5b50610127610595565b6040516101349190611466565b60405180910390f35b34801561014957600080fd5b50610164600480360381019061015f91906115f4565b6105ad565b005b34801561017257600080fd5b5061017b6105c1565b005b6101976004803603810190610192919061172a565b6105d5565b005b3480156101a557600080fd5b506101ae61072e565b6040516101bb9190611466565b60405180910390f35b3480156101d057600080fd5b506101d9610757565b6040516101e69190611466565b60405180910390f35b3480156101fb57600080fd5b506102166004803603810190610211919061152f565b61076f565b005b34801561022457600080fd5b5061023f600480360381019061023a91906117bf565b6108a5565b005b34801561024d57600080fd5b506102686004803603810190610263919061152f565b610928565b60405161027894939291906117ec565b60405180910390f35b73ef1c6e67703c7bd7107eed8303fbe6ec2554bf6b81565b6000806000737a250d5630b4cf539739df2c5dacb4c659f2488d90506000600267ffffffffffffffff8111156102d2576102d1611831565b5b6040519080825280602002602001820160405280156103005781602001602082028036833780820191505090505b509050888160008151811061031857610317611860565b5b602002602001019073ffffffffffffffffffffffffffffffffffffffff16908173ffffffffffffffffffffffffffffffffffffffff1681525050878160018151811061036757610366611860565b5b602002602001019073ffffffffffffffffffffffffffffffffffffffff16908173ffffffffffffffffffffffffffffffffffffffff168152505060008273ffffffffffffffffffffffffffffffffffffffff1663d06ca61f88846040518363ffffffff1660e01b81526004016103de92919061194d565b600060405180830381865afa1580156103fb573d6000803e3d6000fd5b505050506040513d6000823e3d601f19601f820116820180604052508101906104249190611ab2565b60018151811061043757610436611860565b5b6020026020010151905060003073ffffffffffffffffffffffffffffffffffffffff1663d0512b7c8d8d8d8d8d8d6040518763ffffffff1660e01b815260040161048696959493929190611b0a565b600060405180830381600087803b1580156104a057600080fd5b505af19250505080156104b1575060015b610503573d80600081146104e1576040519150601f19603f3d011682016040523d82523d6000602084013e6104e6565b606091505b50808060200190518101906104fb9190611b6b565b915050610580565b8973ffffffffffffffffffffffffffffffffffffffff166370a08231306040518263ffffffff1660e01b815260040161053c9190611466565b602060405180830381865afa158015610559573d6000803e3d6000fd5b505050506040513d601f19601f8201168201806040525081019061057d9190611b6b565b90505b80829550955050505050965096945050505050565b737a250d5630b4cf539739df2c5dacb4c659f2488d81565b6105ba8585858585610e76565b5050505050565b6105c9611031565b6105d360006110af565b565b60003411156106a057600073ef1c6e67703c7bd7107eed8303fbe6ec2554bf6b73ffffffffffffffffffffffffffffffffffffffff163460405161061890611bc9565b60006040518083038185875af1925050503d8060008114610655576040519150601f19603f3d011682016040523d82523d6000602084013e61065a565b606091505b505090508061069e576040517f08c379a000000000000000000000000000000000000000000000000000000000815260040161069590611c3b565b60405180910390fd5b505b73ef1c6e67703c7bd7107eed8303fbe6ec2554bf6b73ffffffffffffffffffffffffffffffffffffffff16633593564c86868686866040518663ffffffff1660e01b81526004016106f5959493929190611e0c565b600060405180830381600087803b15801561070f57600080fd5b505af1158015610723573d6000803e3d6000fd5b505050505050505050565b60008060009054906101000a900473ffffffffffffffffffffffffffffffffffffffff16905090565b7361ffe014ba17989e743c5f6cb21bf9697530b21e81565b60003073ffffffffffffffffffffffffffffffffffffffff16636fa64eb288888787876040518663ffffffff1660e01b81526004016107b2959493929190611e55565b600060405180830381600087803b1580156107cc57600080fd5b505af19250505080156107dd575060015b61081e573d806000811461080d576040519150601f19603f3d011682016040523d82523d6000602084013e610812565b606091505b50604051828152602081fd5b8473ffffffffffffffffffffffffffffffffffffffff166370a08231306040518263ffffffff1660e01b81526004016108579190611466565b602060405180830381865afa158015610874573d6000803e3d6000fd5b505050506040513d601f19601f820116820180604052508101906108989190611b6b565b9050604051818152602081fd5b6108ad611031565b600073ffffffffffffffffffffffffffffffffffffffff168173ffffffffffffffffffffffffffffffffffffffff160361091c576040517f08c379a000000000000000000000000000000000000000000000000000000000815260040161091390611f1a565b60405180910390fd5b610925816110af565b50565b6000806000806000600267ffffffffffffffff81111561094b5761094a611831565b5b6040519080825280602002602001820160405280156109795781602001602082028036833780820191505090505b509050898160008151811061099157610990611860565b5b602002602001019073ffffffffffffffffffffffffffffffffffffffff16908173ffffffffffffffffffffffffffffffffffffffff168152505088816001815181106109e0576109df611860565b5b602002602001019073ffffffffffffffffffffffffffffffffffffffff16908173ffffffffffffffffffffffffffffffffffffffff16815250506000737a250d5630b4cf539739df2c5dacb4c659f2488d73ffffffffffffffffffffffffffffffffffffffff1663d06ca61f89846040518363ffffffff1660e01b8152600401610a6b92919061194d565b600060405180830381865afa158015610a88573d6000803e3d6000fd5b505050506040513d6000823e3d601f19601f82011682018060405250810190610ab19190611ab2565b600181518110610ac457610ac3611860565b5b602002602001015190503073ffffffffffffffffffffffffffffffffffffffff16636fa64eb28d8d8c8c8c6040518663ffffffff1660e01b8152600401610b0f959493929190611e55565b600060405180830381600087803b158015610b2957600080fd5b505af1158015610b3d573d6000803e3d6000fd5b505050508973ffffffffffffffffffffffffffffffffffffffff166370a08231306040518263ffffffff1660e01b8152600401610b7a9190611466565b602060405180830381865afa158015610b97573d6000803e3d6000fd5b505050506040513d601f19601f82011682018060405250810190610bbb9190611b6b565b9750898b809b50819c505050881598508a82600081518110610be057610bdf611860565b5b602002602001019073ffffffffffffffffffffffffffffffffffffffff16908173ffffffffffffffffffffffffffffffffffffffff16815250508982600181518110610c2f57610c2e611860565b5b602002602001019073ffffffffffffffffffffffffffffffffffffffff16908173ffffffffffffffffffffffffffffffffffffffff16815250506000737a250d5630b4cf539739df2c5dacb4c659f2488d73ffffffffffffffffffffffffffffffffffffffff1663d06ca61f8a856040518363ffffffff1660e01b8152600401610cba92919061194d565b600060405180830381865afa158015610cd7573d6000803e3d6000fd5b505050506040513d6000823e3d601f19601f82011682018060405250810190610d009190611ab2565b600181518110610d1357610d12611860565b5b602002602001015190503073ffffffffffffffffffffffffffffffffffffffff1663d0512b7c8e8e8e8e8e876040518763ffffffff1660e01b8152600401610d6096959493929190611b0a565b600060405180830381600087803b158015610d7a57600080fd5b505af1925050508015610d8b575060015b610ddd573d8060008114610dbb576040519150601f19603f3d011682016040523d82523d6000602084013e610dc0565b606091505b5080806020019051810190610dd59190611b6b565b955050610e5a565b8a73ffffffffffffffffffffffffffffffffffffffff166370a08231306040518263ffffffff1660e01b8152600401610e169190611466565b602060405180830381865afa158015610e33573d6000803e3d6000fd5b505050506040513d601f19601f82011682018060405250810190610e579190611b6b565b94505b8882868396509650965096505050509650965096509692505050565b610e81848684611173565b610ea084737a250d5630b4cf539739df2c5dacb4c659f2488d846112c8565b8215610f6a578473ffffffffffffffffffffffffffffffffffffffff1663022c0d9f60008330600067ffffffffffffffff811115610ee157610ee0611831565b5b6040519080825280601f01601f191660200182016040528015610f135781602001600182028036833780820191505090505b506040518563ffffffff1660e01b8152600401610f339493929190611fed565b600060405180830381600087803b158015610f4d57600080fd5b505af1158015610f61573d6000803e3d6000fd5b5050505061102a565b8473ffffffffffffffffffffffffffffffffffffffff1663022c0d9f82600030600067ffffffffffffffff811115610fa557610fa4611831565b5b6040519080825280601f01601f191660200182016040528015610fd75781602001600182028036833780820191505090505b506040518563ffffffff1660e01b8152600401610ff79493929190612039565b600060405180830381600087803b15801561101157600080fd5b505af1158015611025573d6000803e3d6000fd5b505050505b5050505050565b61103961141d565b73ffffffffffffffffffffffffffffffffffffffff1661105761072e565b73ffffffffffffffffffffffffffffffffffffffff16146110ad576040517f08c379a00000000000000000000000000000000000000000000000000000000081526004016110a4906120d1565b60405180910390fd5b565b60008060009054906101000a900473ffffffffffffffffffffffffffffffffffffffff169050816000806101000a81548173ffffffffffffffffffffffffffffffffffffffff021916908373ffffffffffffffffffffffffffffffffffffffff1602179055508173ffffffffffffffffffffffffffffffffffffffff168173ffffffffffffffffffffffffffffffffffffffff167f8be0079c531659141344cd1fd0a4f28419497f9722a3daafe3b4186f6b6457e060405160405180910390a35050565b6000808473ffffffffffffffffffffffffffffffffffffffff1663a9059cbb60e01b85856040516024016111a89291906120f1565b604051602081830303815290604052907bffffffffffffffffffffffffffffffffffffffffffffffffffffffff19166020820180517bffffffffffffffffffffffffffffffffffffffffffffffffffffffff8381831617835250505050604051611212919061214b565b6000604051808303816000865af19150503d806000811461124f576040519150601f19603f3d011682016040523d82523d6000602084013e611254565b606091505b509150915081801561128257506000815114806112815750808060200190518101906112809190612177565b5b5b6112c1576040517f08c379a00000000000000000000000000000000000000000000000000000000081526004016112b8906121f0565b60405180910390fd5b5050505050565b6000808473ffffffffffffffffffffffffffffffffffffffff1663095ea7b360e01b85856040516024016112fd9291906120f1565b604051602081830303815290604052907bffffffffffffffffffffffffffffffffffffffffffffffffffffffff19166020820180517bffffffffffffffffffffffffffffffffffffffffffffffffffffffff8381831617835250505050604051611367919061214b565b6000604051808303816000865af19150503d80600081146113a4576040519150601f19603f3d011682016040523d82523d6000602084013e6113a9565b606091505b50915091508180156113d757506000815114806113d65750808060200190518101906113d59190612177565b5b5b611416576040517f08c379a000000000000000000000000000000000000000000000000000000000815260040161140d9061225c565b60405180910390fd5b5050505050565b600033905090565b600073ffffffffffffffffffffffffffffffffffffffff82169050919050565b600061145082611425565b9050919050565b61146081611445565b82525050565b600060208201905061147b6000830184611457565b92915050565b6000604051905090565b600080fd5b600080fd5b61149e81611445565b81146114a957600080fd5b50565b6000813590506114bb81611495565b92915050565b60008115159050919050565b6114d6816114c1565b81146114e157600080fd5b50565b6000813590506114f3816114cd565b92915050565b6000819050919050565b61150c816114f9565b811461151757600080fd5b50565b60008135905061152981611503565b92915050565b60008060008060008060c0878903121561154c5761154b61148b565b5b600061155a89828a016114ac565b965050602061156b89828a016114ac565b955050604061157c89828a016114ac565b945050606061158d89828a016114e4565b935050608061159e89828a0161151a565b92505060a06115af89828a0161151a565b9150509295509295509295565b6115c5816114f9565b82525050565b60006040820190506115e060008301856115bc565b6115ed60208301846115bc565b9392505050565b600080600080600060a086880312156116105761160f61148b565b5b600061161e888289016114ac565b955050602061162f888289016114ac565b9450506040611640888289016114e4565b93505060606116518882890161151a565b92505060806116628882890161151a565b9150509295509295909350565b600080fd5b600080fd5b600080fd5b60008083601f8401126116945761169361166f565b5b8235905067ffffffffffffffff8111156116b1576116b0611674565b5b6020830191508360018202830111156116cd576116cc611679565b5b9250929050565b60008083601f8401126116ea576116e961166f565b5b8235905067ffffffffffffffff81111561170757611706611674565b5b60208301915083602082028301111561172357611722611679565b5b9250929050565b6000806000806000606086880312156117465761174561148b565b5b600086013567ffffffffffffffff81111561176457611763611490565b5b6117708882890161167e565b9550955050602086013567ffffffffffffffff81111561179357611792611490565b5b61179f888289016116d4565b935093505060406117b28882890161151a565b9150509295509295909350565b6000602082840312156117d5576117d461148b565b5b60006117e3848285016114ac565b91505092915050565b600060808201905061180160008301876115bc565b61180e60208301866115bc565b61181b60408301856115bc565b61182860608301846115bc565b95945050505050565b7f4e487b7100000000000000000000000000000000000000000000000000000000600052604160045260246000fd5b7f4e487b7100000000000000000000000000000000000000000000000000000000600052603260045260246000fd5b600081519050919050565b600082825260208201905092915050565b6000819050602082019050919050565b6118c481611445565b82525050565b60006118d683836118bb565b60208301905092915050565b6000602082019050919050565b60006118fa8261188f565b611904818561189a565b935061190f836118ab565b8060005b8381101561194057815161192788826118ca565b9750611932836118e2565b925050600181019050611913565b5085935050505092915050565b600060408201905061196260008301856115bc565b818103602083015261197481846118ef565b90509392505050565b6000601f19601f8301169050919050565b6119978261197d565b810181811067ffffffffffffffff821117156119b6576119b5611831565b5b80604052505050565b60006119c9611481565b90506119d5828261198e565b919050565b600067ffffffffffffffff8211156119f5576119f4611831565b5b602082029050602081019050919050565b600081519050611a1581611503565b92915050565b6000611a2e611a29846119da565b6119bf565b90508083825260208201905060208402830185811115611a5157611a50611679565b5b835b81811015611a7a5780611a668882611a06565b845260208401935050602081019050611a53565b5050509392505050565b600082601f830112611a9957611a9861166f565b5b8151611aa9848260208601611a1b565b91505092915050565b600060208284031215611ac857611ac761148b565b5b600082015167ffffffffffffffff811115611ae657611ae5611490565b5b611af284828501611a84565b91505092915050565b611b04816114c1565b82525050565b600060c082019050611b1f6000830189611457565b611b2c6020830188611457565b611b396040830187611457565b611b466060830186611afb565b611b5360808301856115bc565b611b6060a08301846115bc565b979650505050505050565b600060208284031215611b8157611b8061148b565b5b6000611b8f84828501611a06565b91505092915050565b600081905092915050565b50565b6000611bb3600083611b98565b9150611bbe82611ba3565b600082019050919050565b6000611bd482611ba6565b9150819050919050565b600082825260208201905092915050565b7f4661696c656420746f2073656e64204574686572000000000000000000000000600082015250565b6000611c25601483611bde565b9150611c3082611bef565b602082019050919050565b60006020820190508181036000830152611c5481611c18565b9050919050565b600082825260208201905092915050565b82818337600083830152505050565b6000611c878385611c5b565b9350611c94838584611c6c565b611c9d8361197d565b840190509392505050565b600082825260208201905092915050565b6000819050919050565b600082825260208201905092915050565b6000611ce08385611cc3565b9350611ced838584611c6c565b611cf68361197d565b840190509392505050565b6000611d0e848484611cd4565b90509392505050565b600080fd5b600080fd5b600080fd5b60008083356001602003843603038112611d4357611d42611d21565b5b83810192508235915060208301925067ffffffffffffffff821115611d6b57611d6a611d17565b5b600182023603831315611d8157611d80611d1c565b5b509250929050565b6000602082019050919050565b6000611da28385611ca8565b935083602084028501611db484611cb9565b8060005b87811015611dfa578484038952611dcf8284611d26565b611dda868284611d01565b9550611de584611d89565b935060208b019a505050600181019050611db8565b50829750879450505050509392505050565b60006060820190508181036000830152611e27818789611c7b565b90508181036020830152611e3c818587611d96565b9050611e4b60408301846115bc565b9695505050505050565b600060a082019050611e6a6000830188611457565b611e776020830187611457565b611e846040830186611afb565b611e9160608301856115bc565b611e9e60808301846115bc565b9695505050505050565b7f4f776e61626c653a206e6577206f776e657220697320746865207a65726f206160008201527f6464726573730000000000000000000000000000000000000000000000000000602082015250565b6000611f04602683611bde565b9150611f0f82611ea8565b604082019050919050565b60006020820190508181036000830152611f3381611ef7565b9050919050565b6000819050919050565b6000819050919050565b6000611f69611f64611f5f84611f3a565b611f44565b6114f9565b9050919050565b611f7981611f4e565b82525050565b600081519050919050565b60005b83811015611fa8578082015181840152602081019050611f8d565b60008484015250505050565b6000611fbf82611f7f565b611fc98185611c5b565b9350611fd9818560208601611f8a565b611fe28161197d565b840191505092915050565b60006080820190506120026000830187611f70565b61200f60208301866115bc565b61201c6040830185611457565b818103606083015261202e8184611fb4565b905095945050505050565b600060808201905061204e60008301876115bc565b61205b6020830186611f70565b6120686040830185611457565b818103606083015261207a8184611fb4565b905095945050505050565b7f4f776e61626c653a2063616c6c6572206973206e6f7420746865206f776e6572600082015250565b60006120bb602083611bde565b91506120c682612085565b602082019050919050565b600060208201905081810360008301526120ea816120ae565b9050919050565b60006040820190506121066000830185611457565b61211360208301846115bc565b9392505050565b600061212582611f7f565b61212f8185611b98565b935061213f818560208601611f8a565b80840191505092915050565b6000612157828461211a565b915081905092915050565b600081519050612171816114cd565b92915050565b60006020828403121561218d5761218c61148b565b5b600061219b84828501612162565b91505092915050565b7f5354000000000000000000000000000000000000000000000000000000000000600082015250565b60006121da600283611bde565b91506121e5826121a4565b602082019050919050565b60006020820190508181036000830152612209816121cd565b9050919050565b7f5341000000000000000000000000000000000000000000000000000000000000600082015250565b6000612246600283611bde565b915061225182612210565b602082019050919050565b6000602082019050818103600083015261227581612239565b905091905056fea2646970667358221220922475791d2f393a17812e1969736c6a9262d744e3f99bdfcbdee0cf8b485a0964736f6c63430008110033",
  "linkReferences": {},
  "deployedLinkReferences": {}
}