{
  "_format": "hh-sol-artifact-1",
  "contractName": "RawSwap",
  "sourceName": "swap/RawSwap.sol",
  "abi": [
    {
      "anonymous": false,
      "inputs": [
        {
          "indexed": true,
          "internalType": "address",
          "name": "previousOwner",
          "type": "address"
        },
        {
          "indexed": true,
          "internalType": "address",
          "name": "newOwner",
          "type": "address"
        }
      ],
      "name": "OwnershipTransferred",
      "type": "event"
    },
    {
      "inputs": [
        {
          "internalType": "address",
          "name": "_pair",
          "type": "address"
        },
        {
          "internalType": "address",
          "name": "_token_in",
          "type": "address"
        },
        {
          "internalType": "uint256",
          "name": "_amountIn",
          "type": "uint256"
        },
        {
          "internalType": "uint256",
          "name": "_amountOut",
          "type": "uint256"
        },
        {
          "internalType": "bool",
          "name": "_isToken0",
          "type": "bool"
        }
      ],
      "name": "executeSwap",
      "outputs": [],
      "stateMutability": "nonpayable",
      "type": "function"
    },
    {
      "inputs": [],
      "name": "owner",
      "outputs": [
        {
          "internalType": "address",
          "name": "",
          "type": "address"
        }
      ],
      "stateMutability": "view",
      "type": "function"
    },
    {
      "inputs": [],
      "name": "renounceOwnership",
      "outputs": [],
      "stateMutability": "nonpayable",
      "type": "function"
    },
    {
      "inputs": [
        {
          "internalType": "address",
          "name": "newOwner",
          "type": "address"
        }
      ],
      "name": "transferOwnership",
      "outputs": [],
      "stateMutability": "nonpayable",
      "type": "function"
    }
  ],
  "bytecode": "0x608060405234801561001057600080fd5b50610351806100206000396000f3fe608060405234801561001057600080fd5b506004361061002b5760003560e01c80637fcf071714610030575b600080fd5b61004a6004803603810190610045919061015f565b61004c565b005b8273ffffffffffffffffffffffffffffffffffffffff1663022c0d9f838330600067ffffffffffffffff8111156100ac577f4e487b7100000000000000000000000000000000000000000000000000000000600052604160045260246000fd5b6040519080825280601f01601f1916602001820160405280156100de5781602001600182028036833780820191505090505b506040518563ffffffff1660e01b81526004016100fe9493929190610205565b600060405180830381600087803b15801561011857600080fd5b505af115801561012c573d6000803e3d6000fd5b50505050505050565b600081359050610144816102ed565b92915050565b60008135905061015981610304565b92915050565b60008060006060848603121561017457600080fd5b600061018286828701610135565b93505060206101938682870161014a565b92505060406101a48682870161014a565b9150509250925092565b6101b78161026d565b82525050565b60006101c882610251565b6101d2818561025c565b93506101e28185602086016102a9565b6101eb816102dc565b840191505092915050565b6101ff8161029f565b82525050565b600060808201905061021a60008301876101f6565b61022760208301866101f6565b61023460408301856101ae565b818103606083015261024681846101bd565b905095945050505050565b600081519050919050565b600082825260208201905092915050565b60006102788261027f565b9050919050565b600073ffffffffffffffffffffffffffffffffffffffff82169050919050565b6000819050919050565b60005b838110156102c75780820151818401526020810190506102ac565b838111156102d6576000848401525b50505050565b6000601f19601f8301169050919050565b6102f68161026d565b811461030157600080fd5b50565b61030d8161029f565b811461031857600080fd5b5056fea264697066735822122016a56439f34be80639f7437950558b23155d72a3c581f5a753ebdefcfa185ab064736f6c63430008000033",
  "linkReferences": {},
  "deployedLinkReferences": {}
}